{"abi":[{"type":"constructor","inputs":[{"name":"_limit","type":"uint256","internalType":"uint256"},{"name":"_cft","type":"address","internalType":"address"}],"stateMutability":"nonpayable"},{"type":"function","name":"AddCustomer","inputs":[{"name":"_name","type":"string","internalType":"string"}],"outputs":[],"stateMutability":"nonpayable"},{"type":"function","name":"BuyCoffee","inputs":[],"outputs":[],"stateMutability":"payable"},{"type":"function","name":"CFT","inputs":[],"outputs":[{"name":"","type":"address","internalType":"contract IERC20"}],"stateMutability":"view"},{"type":"function","name":"changeLimit","inputs":[{"name":"_limit","type":"uint256","internalType":"uint256"}],"outputs":[],"stateMutability":"nonpayable"},{"type":"function","name":"claimToken","inputs":[],"outputs":[],"stateMutability":"nonpayable"},{"type":"function","name":"customers","inputs":[{"name":"","type":"address","internalType":"address"}],"outputs":[{"name":"name","type":"string","internalType":"string"},{"name":"tokens","type":"uint256","internalType":"uint256"},{"name":"coffee","type":"uint256","internalType":"uint256"},{"name":"exist","type":"bool","internalType":"bool"}],"stateMutability":"view"},{"type":"function","name":"limit","inputs":[],"outputs":[{"name":"","type":"uint256","internalType":"uint256"}],"stateMutability":"view"},{"type":"function","name":"owner","inputs":[],"outputs":[{"name":"","type":"address","internalType":"address"}],"stateMutability":"view"},{"type":"event","name":"addEvent","inputs":[{"name":"name","type":"string","indexed":false,"internalType":"string"},{"name":"time","type":"uint256","indexed":false,"internalType":"uint256"}],"anonymous":false},{"type":"event","name":"buyEvent","inputs":[{"name":"addr","type":"address","indexed":false,"internalType":"address"},{"name":"name","type":"string","indexed":false,"internalType":"string"},{"name":"amount","type":"uint256","indexed":false,"internalType":"uint256"},{"name":"coffee","type":"uint256","indexed":false,"internalType":"uint256"}],"anonymous":false},{"type":"event","name":"claimEvent","inputs":[{"name":"addr","type":"address","indexed":false,"internalType":"address"},{"name":"tokens","type":"uint256","indexed":false,"internalType":"uint256"}],"anonymous":false}],"bytecode":{"object":"0x6080604052348015600f57600080fd5b50604051610b9e380380610b9e833981016040819052602c91605f565b600280546001600160a01b039092166001600160a01b03199283161790556000919091556001805490911633179055609a565b60008060408385031215607157600080fd5b825160208401519092506001600160a01b0381168114608f57600080fd5b809150509250929050565b610af5806100a96000396000f3fe60806040526004361061007b5760003560e01c80636d33b42b1161004e5780636d33b42b146100f8578063877bbadb146101185780638da5cb5b14610150578063a4d66daf1461017057600080fd5b806305528bd414610080578063064806eb146100a2578063336989ae146100aa5780634451d89f146100e3575b600080fd5b34801561008c57600080fd5b506100a061009b3660046106d7565b610194565b005b6100a06102a5565b3480156100b657600080fd5b506100ca6100c5366004610790565b61034e565b6040516100da9493929190610806565b60405180910390f35b3480156100ef57600080fd5b506100a0610403565b34801561010457600080fd5b506100a0610113366004610837565b610672565b34801561012457600080fd5b50600254610138906001600160a01b031681565b6040516001600160a01b0390911681526020016100da565b34801561015c57600080fd5b50600154610138906001600160a01b031681565b34801561017c57600080fd5b5061018660005481565b6040519081526020016100da565b336000908152600360208190526040909120015460ff16156101fd5760405162461bcd60e51b815260206004820152601760248201527f416c726561647920637573746f6d65722065786973747300000000000000000060448201526064015b60405180910390fd5b60408051608081018252828152600060208083018290528284018290526001606084015233825260039052919091208151819061023a90826108d9565b506020820151600182015560408083015160028301556060909201516003909101805460ff1916911515919091179055517ff0e1691a4b33f408f06296dcd0410ec4545bc580e2a8bcf58bb45d63474c70719061029a9083904290610998565b60405180910390a150565b662386f26fc100003410156102ed5760405162461bcd60e51b815260206004820152600e60248201526d507269636520746f6f206c6f772160901b60448201526064016101f4565b6000610300662386f26fc10000346109ba565b33600081815260036020526040908190206002810184905590519293507fa2fd312997d0c1215b6b5060046e8caf8829610df7bcd6a93fcb8d6f1d4c65cf9261029a929190349086906109dc565b60036020526000908152604090208054819061036990610850565b80601f016020809104026020016040519081016040528092919081815260200182805461039590610850565b80156103e25780601f106103b7576101008083540402835291602001916103e2565b820191906000526020600020905b8154815290600101906020018083116103c557829003601f168201915b50505050600183015460028401546003909401549293909290915060ff1684565b336000908152600360208190526040909120015460ff166104665760405162461bcd60e51b815260206004820152601860248201527f437573746f6d657220646f6573206e6f7420657869737421000000000000000060448201526064016101f4565b60008054338252600360205260409091206002015410156104c95760405162461bcd60e51b815260206004820152601d60248201527f596f75206861766520746f2062757920736f6d6520636f66666565732100000060448201526064016101f4565b3360009081526003602052604081206002015481549091906104eb90836109ba565b6002546040516370a0823160e01b815230600482015291925082916001600160a01b03909116906370a0823190602401602060405180830381865afa158015610538573d6000803e3d6000fd5b505050506040513d601f19601f8201168201806040525081019061055c9190610a84565b10156105aa5760405162461bcd60e51b815260206004820152601e60248201527f4e6f7420656e6f75676820746f6b656e7320696e20636f6e747261637421000060448201526064016101f4565b60025460405163a9059cbb60e01b8152336004820152602481018390526001600160a01b039091169063a9059cbb906044016020604051808303816000875af11580156105fb573d6000803e3d6000fd5b505050506040513d601f19601f8201168201806040525081019061061f9190610a9d565b5033600081815260036020908152604080832060020192909255815192835282018390527ff96626d18d8a79ffbbff20aeb2ca358ea105b07cadff1bb5e32f2fd9f4e8832d910160405180910390a15050565b6001546001600160a01b031633146106bc5760405162461bcd60e51b815260206004820152600d60248201526c2737ba103a34329027bbb732b960991b60448201526064016101f4565b600055565b634e487b7160e01b600052604160045260246000fd5b6000602082840312156106e957600080fd5b813567ffffffffffffffff81111561070057600080fd5b8201601f8101841361071157600080fd5b803567ffffffffffffffff81111561072b5761072b6106c1565b604051601f8201601f19908116603f0116810167ffffffffffffffff8111828210171561075a5761075a6106c1565b60405281815282820160200186101561077257600080fd5b81602084016020830137600091810160200191909152949350505050565b6000602082840312156107a257600080fd5b81356001600160a01b03811681146107b957600080fd5b9392505050565b6000815180845260005b818110156107e6576020818501810151868301820152016107ca565b506000602082860101526020601f19601f83011685010191505092915050565b60808152600061081960808301876107c0565b60208301959095525060408101929092521515606090910152919050565b60006020828403121561084957600080fd5b5035919050565b600181811c9082168061086457607f821691505b60208210810361088457634e487b7160e01b600052602260045260246000fd5b50919050565b601f8211156108d457806000526020600020601f840160051c810160208510156108b15750805b601f840160051c820191505b818110156108d157600081556001016108bd565b50505b505050565b815167ffffffffffffffff8111156108f3576108f36106c1565b610907816109018454610850565b8461088a565b6020601f82116001811461093b57600083156109235750848201515b600019600385901b1c1916600184901b1784556108d1565b600084815260208120601f198516915b8281101561096b578785015182556020948501946001909201910161094b565b50848210156109895786840151600019600387901b60f8161c191681555b50505050600190811b01905550565b6040815260006109ab60408301856107c0565b90508260208301529392505050565b6000826109d757634e487b7160e01b600052601260045260246000fd5b500490565b6001600160a01b038516815260806020820152835460009081906109ff81610850565b8060808601526001821660008114610a1e5760018114610a3a57610a6e565b60ff19831660a087015260a082151560051b8701019350610a6e565b88600052602060002060005b83811015610a6557815488820160a00152600190910190602001610a46565b870160a0019450505b5050506040830194909452506060015292915050565b600060208284031215610a9657600080fd5b5051919050565b600060208284031215610aaf57600080fd5b815180151581146107b957600080fdfea2646970667358221220087f83655111925fdb8469d26f636b4d662b0a3a77eea0acd75613f3da2d4b1664736f6c634300081a0033","linkReferences":{}},"methodIdentifiers":{"AddCustomer(string)":"05528bd4","BuyCoffee()":"064806eb","CFT()":"877bbadb","changeLimit(uint256)":"6d33b42b","claimToken()":"4451d89f","customers(address)":"336989ae","limit()":"a4d66daf","owner()":"8da5cb5b"},"id":30}